{
  "contractName": "TodoList",
  "abi": [
    {
      "inputs": [],
      "payable": false,
      "stateMutability": "nonpayable",
      "type": "constructor"
    },
    {
      "anonymous": false,
      "inputs": [
        {
          "indexed": false,
          "internalType": "uint256",
          "name": "id",
          "type": "uint256"
        },
        {
          "indexed": false,
          "internalType": "bool",
          "name": "completed",
          "type": "bool"
        }
      ],
      "name": "TaskCompleted",
      "type": "event"
    },
    {
      "anonymous": false,
      "inputs": [
        {
          "indexed": false,
          "internalType": "uint256",
          "name": "id",
          "type": "uint256"
        },
        {
          "indexed": false,
          "internalType": "string",
          "name": "content",
          "type": "string"
        },
        {
          "indexed": false,
          "internalType": "bool",
          "name": "completed",
          "type": "bool"
        },
        {
          "indexed": false,
          "internalType": "bool",
          "name": "deleted",
          "type": "bool"
        }
      ],
      "name": "TaskCreated",
      "type": "event"
    },
    {
      "anonymous": false,
      "inputs": [
        {
          "indexed": false,
          "internalType": "uint256",
          "name": "id",
          "type": "uint256"
        },
        {
          "indexed": false,
          "internalType": "bool",
          "name": "deleted",
          "type": "bool"
        }
      ],
      "name": "TaskDeleted",
      "type": "event"
    },
    {
      "constant": true,
      "inputs": [],
      "name": "taskCount",
      "outputs": [
        {
          "internalType": "uint256",
          "name": "",
          "type": "uint256"
        }
      ],
      "payable": false,
      "stateMutability": "view",
      "type": "function"
    },
    {
      "constant": true,
      "inputs": [
        {
          "internalType": "uint256",
          "name": "",
          "type": "uint256"
        }
      ],
      "name": "tasks",
      "outputs": [
        {
          "internalType": "uint256",
          "name": "id",
          "type": "uint256"
        },
        {
          "internalType": "string",
          "name": "content",
          "type": "string"
        },
        {
          "internalType": "bool",
          "name": "completed",
          "type": "bool"
        },
        {
          "internalType": "bool",
          "name": "deleted",
          "type": "bool"
        }
      ],
      "payable": false,
      "stateMutability": "view",
      "type": "function"
    },
    {
      "constant": false,
      "inputs": [
        {
          "internalType": "string",
          "name": "_content",
          "type": "string"
        }
      ],
      "name": "createTask",
      "outputs": [],
      "payable": false,
      "stateMutability": "nonpayable",
      "type": "function"
    },
    {
      "constant": false,
      "inputs": [
        {
          "internalType": "uint256",
          "name": "_id",
          "type": "uint256"
        }
      ],
      "name": "toggleCompleted",
      "outputs": [],
      "payable": false,
      "stateMutability": "nonpayable",
      "type": "function"
    },
    {
      "constant": false,
      "inputs": [
        {
          "internalType": "uint256",
          "name": "_id",
          "type": "uint256"
        }
      ],
      "name": "toggleDeleted",
      "outputs": [],
      "payable": false,
      "stateMutability": "nonpayable",
      "type": "function"
    }
  ],
  "bytecode": "0x60806040526000805534801561001457600080fd5b5060408051808201909152601081526f0436865636b6f7574206d7920444170760841b602082015261004e906001600160e01b0361005316565b610234565b6000805460019081018083556040805160808101825282815260208082018781528284018790526060830187905293865284815291909420845181559151805192936100a793908501929190910190610199565b506040828101516002909201805460609485015115156101000261ff001994151560ff199092169190911793909316929092179091556000805482518181529283018290529282018190526080602080840182815286519285019290925285517fd3b5ebbcee14df18f4cab0dc4d660788f6a8d81c06f14b96a8942de3e730f518959487949384939192909160a084019190870190808383885b83811015610159578181015183820152602001610141565b50505050905090810190601f1680156101865780820380516001836020036101000a031916815260200191505b509550505050505060405180910390a150565b828054600181600116156101000203166002900490600052602060002090601f016020900481019282601f106101da57805160ff1916838001178555610207565b82800160010185558215610207579182015b828111156102075782518255916020019190600101906101ec565b50610213929150610217565b5090565b61023191905b80821115610213576000815560010161021d565b90565b610820806102436000396000f3fe608060405234801561001057600080fd5b50600436106100575760003560e01c8063111002aa1461005c578063455f5024146101045780636c444f56146101215780638d9776721461013e578063b6cb58a5146101ed575b600080fd5b6101026004803603602081101561007257600080fd5b81019060208101813564010000000081111561008d57600080fd5b82018360208201111561009f57600080fd5b803590602001918460018302840111640100000000831117156100c157600080fd5b91908080601f016020809104026020016040519081016040528093929190818152602001838380828437600092019190915250929550610207945050505050565b005b6101026004803603602081101561011a57600080fd5b503561034d565b6101026004803603602081101561013757600080fd5b50356104d9565b61015b6004803603602081101561015457600080fd5b5035610666565b6040805185815283151591810191909152811515606082015260806020808301828152865192840192909252855160a084019187019080838360005b838110156101af578181015183820152602001610197565b50505050905090810190601f1680156101dc5780820380516001836020036101000a031916815260200191505b509550505050505060405180910390f35b6101f561071e565b60408051918252519081900360200190f35b60008054600190810180835560408051608081018252828152602080820187815282840187905260608301879052938652848152919094208451815591518051929361025b93908501929190910190610724565b506040828101516002909201805460609485015115156101000261ff001994151560ff199092169190911793909316929092179091556000805482518181529283018290529282018190526080602080840182815286519285019290925285517fd3b5ebbcee14df18f4cab0dc4d660788f6a8d81c06f14b96a8942de3e730f518959487949384939192909160a084019190870190808383885b8381101561030d5781810151838201526020016102f5565b50505050905090810190601f16801561033a5780820380516001836020036101000a031916815260200191505b509550505050505060405180910390a150565b6103556107a2565b60008281526001602081815260409283902083516080810185528154815281840180548651600296821615610100026000190190911695909504601f810185900485028601850190965285855290949193858401939092908301828280156103fe5780601f106103d3576101008083540402835291602001916103fe565b820191906000526020600020905b8154815290600101906020018083116103e157829003601f168201915b50505091835250506002919091015460ff808216151560208085019190915261010090920416151560409283015282820180511590526000858152600180835292902083518155838201518051949550859491936104629390850192910190610724565b506040828101516002909201805460609094015115156101000261ff001993151560ff199095169490941792909216929092179055818101518151848152901515602082015281517fe21fa966ca5cd02748c0752352d18c48165e61cb55b4c29cccf924b5a95fcff1929181900390910190a15050565b6104e16107a2565b60008281526001602081815260409283902083516080810185528154815281840180548651600296821615610100026000190190911695909504601f8101859004850286018501909652858552909491938584019390929083018282801561058a5780601f1061055f5761010080835404028352916020019161058a565b820191906000526020600020905b81548152906001019060200180831161056d57829003601f168201915b50505091835250506002919091015460ff808216151560208085019190915261010090920416151560409283015260016060840181905260008681528183529290922083518155838201518051949550859491936105ee9390850192910190610724565b506040828101516002909201805460609485015115156101000261ff001994151560ff19909216919091179390931692909217909155908201518151848152901515602082015281517f572597a6891de3ffc5ddb25adeb4871a3bf451676410ca50eed9524c49bdc0e6929181900390910190a15050565b600160208181526000928352604092839020805481840180548651600296821615610100026000190190911695909504601f810185900485028601850190965285855290949193929091908301828280156107025780601f106106d757610100808354040283529160200191610702565b820191906000526020600020905b8154815290600101906020018083116106e557829003601f168201915b5050506002909301549192505060ff8082169161010090041684565b60005481565b828054600181600116156101000203166002900490600052602060002090601f016020900481019282601f1061076557805160ff1916838001178555610792565b82800160010185558215610792579182015b82811115610792578251825591602001919060010190610777565b5061079e9291506107ce565b5090565b604051806080016040528060008152602001606081526020016000151581526020016000151581525090565b6107e891905b8082111561079e57600081556001016107d4565b9056fea265627a7a7231582057a5205263061ad47475018b2e8aada8f974ea201ac4d9ddba701ed7bd3ce9d964736f6c63430005100032",
  "source": "pragma solidity >=0.4.22 <0.9.0;\r\n\r\ncontract TodoList {\r\n    uint public taskCount = 0;\r\n\r\n    // Creating structure of task object\r\n    struct Task {\r\n        uint id;\r\n        string content;\r\n        bool completed;\r\n        bool deleted;\r\n    }\r\n\r\n    // Mapping key value pair\r\n    // Key -> integer, Value -> Task\r\n    mapping(uint => Task) public tasks;\r\n\r\n    event TaskCreated(uint id, string content, bool completed, bool deleted);\r\n    event TaskCompleted(uint id, bool completed);\r\n    event TaskDeleted(uint id, bool deleted);\r\n\r\n    constructor() public {\r\n        createTask(\"Checkout my DApp\");\r\n    }\r\n\r\n    // Create task\r\n    function createTask(string memory _content) public {\r\n        taskCount++;\r\n        tasks[taskCount] = Task(taskCount, _content, false, false);\r\n        // Broadcast event that task is added\r\n        emit TaskCreated(taskCount, _content, false, false);\r\n    }\r\n\r\n    function toggleCompleted(uint _id) public {\r\n        Task memory _task = tasks[_id];\r\n        _task.completed = !_task.completed;\r\n        tasks[_id] = _task;\r\n        emit TaskCompleted(_id, _task.completed);\r\n    }\r\n\r\n    function toggleDeleted(uint _id) public {\r\n        Task memory _task = tasks[_id];\r\n        _task.deleted = true;\r\n        tasks[_id] = _task;\r\n        emit TaskDeleted(_id, _task.deleted);\r\n    }\r\n}\r\n",
  "sourcePath": "C:\\Users\\maunu\\code\\To-Do-App--Blockchain-Group-Project\\contracts\\TodoList.sol",
  "compiler": {
    "name": "solc",
    "version": "0.5.16+commit.9c3226ce.Emscripten.clang"
  },
  "schemaVersion": "3.4.16",
  "updatedAt": "2024-05-14T08:50:44.703Z",
  "devdoc": {
    "methods": {}
  },
  "userdoc": {
    "methods": {}
  }
}